{
  "_format": "hh-sol-artifact-1",
  "contractName": "Transactions",
  "sourceName": "contracts/Transactions.sol",
  "abi": [
    {
      "anonymous": false,
      "inputs": [
        {
          "indexed": false,
          "internalType": "address",
          "name": "tokenAddress",
          "type": "address"
        }
      ],
      "name": "TokenAddressAdded",
      "type": "event"
    },
    {
      "anonymous": false,
      "inputs": [
        {
          "indexed": false,
          "internalType": "address",
          "name": "from",
          "type": "address"
        },
        {
          "indexed": false,
          "internalType": "address",
          "name": "receiver",
          "type": "address"
        },
        {
          "indexed": false,
          "internalType": "uint256",
          "name": "amount",
          "type": "uint256"
        },
        {
          "indexed": false,
          "internalType": "string",
          "name": "message",
          "type": "string"
        },
        {
          "indexed": false,
          "internalType": "uint256",
          "name": "timestamp",
          "type": "uint256"
        },
        {
          "indexed": false,
          "internalType": "string",
          "name": "keyword",
          "type": "string"
        }
      ],
      "name": "Transfer",
      "type": "event"
    },
    {
      "inputs": [
        {
          "internalType": "address payable",
          "name": "receiver",
          "type": "address"
        },
        {
          "internalType": "uint256",
          "name": "amount",
          "type": "uint256"
        },
        {
          "internalType": "string",
          "name": "message",
          "type": "string"
        },
        {
          "internalType": "string",
          "name": "keyword",
          "type": "string"
        }
      ],
      "name": "addToBlockchain",
      "outputs": [],
      "stateMutability": "nonpayable",
      "type": "function"
    },
    {
      "inputs": [
        {
          "internalType": "address",
          "name": "tokenAddress",
          "type": "address"
        }
      ],
      "name": "addTokenAddress",
      "outputs": [],
      "stateMutability": "nonpayable",
      "type": "function"
    },
    {
      "inputs": [],
      "name": "getAllTokenAddresses",
      "outputs": [
        {
          "internalType": "address[]",
          "name": "",
          "type": "address[]"
        }
      ],
      "stateMutability": "view",
      "type": "function"
    },
    {
      "inputs": [],
      "name": "getAllTransactions",
      "outputs": [
        {
          "components": [
            {
              "internalType": "address",
              "name": "sender",
              "type": "address"
            },
            {
              "internalType": "address",
              "name": "receiver",
              "type": "address"
            },
            {
              "internalType": "uint256",
              "name": "amount",
              "type": "uint256"
            },
            {
              "internalType": "string",
              "name": "message",
              "type": "string"
            },
            {
              "internalType": "uint256",
              "name": "timestamp",
              "type": "uint256"
            },
            {
              "internalType": "string",
              "name": "keyword",
              "type": "string"
            }
          ],
          "internalType": "struct Transactions.TransferStruct[]",
          "name": "",
          "type": "tuple[]"
        }
      ],
      "stateMutability": "view",
      "type": "function"
    },
    {
      "inputs": [],
      "name": "getTokenAddressCount",
      "outputs": [
        {
          "internalType": "uint256",
          "name": "",
          "type": "uint256"
        }
      ],
      "stateMutability": "view",
      "type": "function"
    },
    {
      "inputs": [],
      "name": "getTransactionCount",
      "outputs": [
        {
          "internalType": "uint256",
          "name": "",
          "type": "uint256"
        }
      ],
      "stateMutability": "view",
      "type": "function"
    }
  ],
  "bytecode": "0x608060405234801561001057600080fd5b50611090806100206000396000f3fe608060405234801561001057600080fd5b50600436106100625760003560e01c806327506f53146100675780632e7700f01461008557806351992fcb146100a35780636d4ae680146100bf5780637bc2de8b146100dd578063cc2d7ead146100fb575b600080fd5b61006f610117565b60405161007c9190610ccc565b60405180910390f35b61008d61035a565b60405161009a9190610d0e565b60405180910390f35b6100bd60048036038101906100b891906108d8565b610363565b005b6100c7610534565b6040516100d49190610caa565b60405180910390f35b6100e56105c2565b6040516100f29190610d0e565b60405180910390f35b61011560048036038101906101109190610901565b6105cc565b005b60606001805480602002602001604051908101604052809291908181526020016000905b8282101561035157838290600052602060002090600602016040518060c00160405290816000820160009054906101000a900473ffffffffffffffffffffffffffffffffffffffff1673ffffffffffffffffffffffffffffffffffffffff1673ffffffffffffffffffffffffffffffffffffffff1681526020016001820160009054906101000a900473ffffffffffffffffffffffffffffffffffffffff1673ffffffffffffffffffffffffffffffffffffffff1673ffffffffffffffffffffffffffffffffffffffff1681526020016002820154815260200160038201805461022490610f45565b80601f016020809104026020016040519081016040528092919081815260200182805461025090610f45565b801561029d5780601f106102725761010080835404028352916020019161029d565b820191906000526020600020905b81548152906001019060200180831161028057829003601f168201915b50505050508152602001600482015481526020016005820180546102c090610f45565b80601f01602080910402602001604051908101604052809291908181526020018280546102ec90610f45565b80156103395780601f1061030e57610100808354040283529160200191610339565b820191906000526020600020905b81548152906001019060200180831161031c57829003601f168201915b5050505050815250508152602001906001019061013b565b50505050905090565b60008054905090565b600073ffffffffffffffffffffffffffffffffffffffff168173ffffffffffffffffffffffffffffffffffffffff1614156103d3576040517f08c379a00000000000000000000000000000000000000000000000000000000081526004016103ca90610cee565b60405180910390fd5b600260008273ffffffffffffffffffffffffffffffffffffffff1673ffffffffffffffffffffffffffffffffffffffff16815260200190815260200160002060009054906101000a900460ff16610531576001600260008373ffffffffffffffffffffffffffffffffffffffff1673ffffffffffffffffffffffffffffffffffffffff16815260200190815260200160002060006101000a81548160ff02191690831515021790555060016004600082825461048f9190610e29565b925050819055506003819080600181540180825580915050600190039060005260206000200160009091909190916101000a81548173ffffffffffffffffffffffffffffffffffffffff021916908373ffffffffffffffffffffffffffffffffffffffff1602179055507f0f75be863c72d8ce341b54460a31146ee8b87fd1774066a11caafeacef8d9968816040516105289190610c20565b60405180910390a15b50565b606060038054806020026020016040519081016040528092919081815260200182805480156105b857602002820191906000526020600020905b8160009054906101000a900473ffffffffffffffffffffffffffffffffffffffff1673ffffffffffffffffffffffffffffffffffffffff168152602001906001019080831161056e575b5050505050905090565b6000600454905090565b60016000808282546105de9190610e29565b9250508190555060016040518060c001604052803373ffffffffffffffffffffffffffffffffffffffff1681526020018673ffffffffffffffffffffffffffffffffffffffff16815260200185815260200184815260200142815260200183815250908060018154018082558091505060019003906000526020600020906006020160009091909190915060008201518160000160006101000a81548173ffffffffffffffffffffffffffffffffffffffff021916908373ffffffffffffffffffffffffffffffffffffffff16021790555060208201518160010160006101000a81548173ffffffffffffffffffffffffffffffffffffffff021916908373ffffffffffffffffffffffffffffffffffffffff16021790555060408201518160020155606082015181600301908051906020019061071d92919061078e565b506080820151816004015560a082015181600501908051906020019061074492919061078e565b5050507f416cfa4330a4565f45c2fd2dd4826a83a37443aba2ce6f79477c7355afac35fa33858585428660405161078096959493929190610c3b565b60405180910390a150505050565b82805461079a90610f45565b90600052602060002090601f0160209004810192826107bc5760008555610803565b82601f106107d557805160ff1916838001178555610803565b82800160010185558215610803579182015b828111156108025782518255916020019190600101906107e7565b5b5090506108109190610814565b5090565b5b8082111561082d576000816000905550600101610815565b5090565b600061084461083f84610d5a565b610d29565b90508281526020810184848401111561085c57600080fd5b610867848285610f03565b509392505050565b60008135905061087e81611015565b92915050565b6000813590506108938161102c565b92915050565b600082601f8301126108aa57600080fd5b81356108ba848260208601610831565b91505092915050565b6000813590506108d281611043565b92915050565b6000602082840312156108ea57600080fd5b60006108f88482850161086f565b91505092915050565b6000806000806080858703121561091757600080fd5b600061092587828801610884565b9450506020610936878288016108c3565b935050604085013567ffffffffffffffff81111561095357600080fd5b61095f87828801610899565b925050606085013567ffffffffffffffff81111561097c57600080fd5b61098887828801610899565b91505092959194509250565b60006109a083836109cf565b60208301905092915050565b60006109b88383610b72565b905092915050565b6109c981610ecd565b82525050565b6109d881610e7f565b82525050565b6109e781610e7f565b82525050565b60006109f882610daa565b610a028185610de5565b9350610a0d83610d8a565b8060005b83811015610a3e578151610a258882610994565b9750610a3083610dcb565b925050600181019050610a11565b5085935050505092915050565b6000610a5682610db5565b610a608185610df6565b935083602082028501610a7285610d9a565b8060005b85811015610aae5784840389528151610a8f85826109ac565b9450610a9a83610dd8565b925060208a01995050600181019050610a76565b50829750879550505050505092915050565b6000610acb82610dc0565b610ad58185610e07565b9350610ae5818560208601610f12565b610aee81611004565b840191505092915050565b6000610b0482610dc0565b610b0e8185610e18565b9350610b1e818560208601610f12565b610b2781611004565b840191505092915050565b6000610b3f601583610e18565b91507f496e76616c696420746f6b656e206164647265737300000000000000000000006000830152602082019050919050565b600060c083016000830151610b8a60008601826109cf565b506020830151610b9d60208601826109cf565b506040830151610bb06040860182610c02565b5060608301518482036060860152610bc88282610ac0565b9150506080830151610bdd6080860182610c02565b5060a083015184820360a0860152610bf58282610ac0565b9150508091505092915050565b610c0b81610ec3565b82525050565b610c1a81610ec3565b82525050565b6000602082019050610c3560008301846109de565b92915050565b600060c082019050610c5060008301896109de565b610c5d60208301886109c0565b610c6a6040830187610c11565b8181036060830152610c7c8186610af9565b9050610c8b6080830185610c11565b81810360a0830152610c9d8184610af9565b9050979650505050505050565b60006020820190508181036000830152610cc481846109ed565b905092915050565b60006020820190508181036000830152610ce68184610a4b565b905092915050565b60006020820190508181036000830152610d0781610b32565b9050919050565b6000602082019050610d236000830184610c11565b92915050565b6000604051905081810181811067ffffffffffffffff82111715610d5057610d4f610fd5565b5b8060405250919050565b600067ffffffffffffffff821115610d7557610d74610fd5565b5b601f19601f8301169050602081019050919050565b6000819050602082019050919050565b6000819050602082019050919050565b600081519050919050565b600081519050919050565b600081519050919050565b6000602082019050919050565b6000602082019050919050565b600082825260208201905092915050565b600082825260208201905092915050565b600082825260208201905092915050565b600082825260208201905092915050565b6000610e3482610ec3565b9150610e3f83610ec3565b9250827fffffffffffffffffffffffffffffffffffffffffffffffffffffffffffffffff03821115610e7457610e73610f77565b5b828201905092915050565b6000610e8a82610ea3565b9050919050565b6000610e9c82610ea3565b9050919050565b600073ffffffffffffffffffffffffffffffffffffffff82169050919050565b6000819050919050565b6000610ed882610edf565b9050919050565b6000610eea82610ef1565b9050919050565b6000610efc82610ea3565b9050919050565b82818337600083830152505050565b60005b83811015610f30578082015181840152602081019050610f15565b83811115610f3f576000848401525b50505050565b60006002820490506001821680610f5d57607f821691505b60208210811415610f7157610f70610fa6565b5b50919050565b7f4e487b7100000000000000000000000000000000000000000000000000000000600052601160045260246000fd5b7f4e487b7100000000000000000000000000000000000000000000000000000000600052602260045260246000fd5b7f4e487b7100000000000000000000000000000000000000000000000000000000600052604160045260246000fd5b6000601f19601f8301169050919050565b61101e81610e7f565b811461102957600080fd5b50565b61103581610e91565b811461104057600080fd5b50565b61104c81610ec3565b811461105757600080fd5b5056fea26469706673582212203ed83796f0850cff33a538286cada58552681320fa6082e683d320f78ff3603b64736f6c63430008000033",
  "linkReferences": {},
  "deployedLinkReferences": {}
}